{
    "_format": "hh-sol-artifact-1",
    "contractName": "NFT",
    "sourceName": "contracts/NFT.sol",
    "abi": [
        {
            "inputs": [],
            "stateMutability": "payable",
            "type": "constructor"
        },
        {
            "anonymous": false,
            "inputs": [
                {
                    "indexed": true,
                    "internalType": "address",
                    "name": "owner",
                    "type": "address"
                },
                {
                    "indexed": true,
                    "internalType": "address",
                    "name": "approved",
                    "type": "address"
                },
                {
                    "indexed": true,
                    "internalType": "uint256",
                    "name": "tokenId",
                    "type": "uint256"
                }
            ],
            "name": "Approval",
            "type": "event"
        },
        {
            "anonymous": false,
            "inputs": [
                {
                    "indexed": true,
                    "internalType": "address",
                    "name": "owner",
                    "type": "address"
                },
                {
                    "indexed": true,
                    "internalType": "address",
                    "name": "operator",
                    "type": "address"
                },
                {
                    "indexed": false,
                    "internalType": "bool",
                    "name": "approved",
                    "type": "bool"
                }
            ],
            "name": "ApprovalForAll",
            "type": "event"
        },
        {
            "anonymous": false,
            "inputs": [
                {
                    "indexed": true,
                    "internalType": "address",
                    "name": "previousOwner",
                    "type": "address"
                },
                {
                    "indexed": true,
                    "internalType": "address",
                    "name": "newOwner",
                    "type": "address"
                }
            ],
            "name": "OwnershipTransferred",
            "type": "event"
        },
        {
            "anonymous": false,
            "inputs": [
                {
                    "indexed": true,
                    "internalType": "address",
                    "name": "from",
                    "type": "address"
                },
                {
                    "indexed": true,
                    "internalType": "address",
                    "name": "to",
                    "type": "address"
                },
                {
                    "indexed": true,
                    "internalType": "uint256",
                    "name": "tokenId",
                    "type": "uint256"
                }
            ],
            "name": "Transfer",
            "type": "event"
        },
        {
            "inputs": [
                {
                    "internalType": "address",
                    "name": "to",
                    "type": "address"
                },
                {
                    "internalType": "uint256",
                    "name": "tokenId",
                    "type": "uint256"
                }
            ],
            "name": "approve",
            "outputs": [],
            "stateMutability": "nonpayable",
            "type": "function"
        },
        {
            "inputs": [
                {
                    "internalType": "address",
                    "name": "owner",
                    "type": "address"
                }
            ],
            "name": "balanceOf",
            "outputs": [
                {
                    "internalType": "uint256",
                    "name": "",
                    "type": "uint256"
                }
            ],
            "stateMutability": "view",
            "type": "function"
        },
        {
            "inputs": [
                {
                    "internalType": "uint256",
                    "name": "tokenId",
                    "type": "uint256"
                }
            ],
            "name": "getApproved",
            "outputs": [
                {
                    "internalType": "address",
                    "name": "",
                    "type": "address"
                }
            ],
            "stateMutability": "view",
            "type": "function"
        },
        {
            "inputs": [
                {
                    "internalType": "address",
                    "name": "owner",
                    "type": "address"
                },
                {
                    "internalType": "address",
                    "name": "operator",
                    "type": "address"
                }
            ],
            "name": "isApprovedForAll",
            "outputs": [
                {
                    "internalType": "bool",
                    "name": "",
                    "type": "bool"
                }
            ],
            "stateMutability": "view",
            "type": "function"
        },
        {
            "inputs": [],
            "name": "isPublicMintEnabled",
            "outputs": [
                {
                    "internalType": "bool",
                    "name": "",
                    "type": "bool"
                }
            ],
            "stateMutability": "view",
            "type": "function"
        },
        {
            "inputs": [],
            "name": "maxPerWallet",
            "outputs": [
                {
                    "internalType": "uint256",
                    "name": "",
                    "type": "uint256"
                }
            ],
            "stateMutability": "view",
            "type": "function"
        },
        {
            "inputs": [],
            "name": "maxSupply",
            "outputs": [
                {
                    "internalType": "uint256",
                    "name": "",
                    "type": "uint256"
                }
            ],
            "stateMutability": "view",
            "type": "function"
        },
        {
            "inputs": [
                {
                    "internalType": "uint256",
                    "name": "quantity_",
                    "type": "uint256"
                }
            ],
            "name": "mint",
            "outputs": [],
            "stateMutability": "payable",
            "type": "function"
        },
        {
            "inputs": [],
            "name": "mintPrice",
            "outputs": [
                {
                    "internalType": "uint256",
                    "name": "",
                    "type": "uint256"
                }
            ],
            "stateMutability": "view",
            "type": "function"
        },
        {
            "inputs": [],
            "name": "name",
            "outputs": [
                {
                    "internalType": "string",
                    "name": "",
                    "type": "string"
                }
            ],
            "stateMutability": "view",
            "type": "function"
        },
        {
            "inputs": [],
            "name": "owner",
            "outputs": [
                {
                    "internalType": "address",
                    "name": "",
                    "type": "address"
                }
            ],
            "stateMutability": "view",
            "type": "function"
        },
        {
            "inputs": [
                {
                    "internalType": "uint256",
                    "name": "tokenId",
                    "type": "uint256"
                }
            ],
            "name": "ownerOf",
            "outputs": [
                {
                    "internalType": "address",
                    "name": "",
                    "type": "address"
                }
            ],
            "stateMutability": "view",
            "type": "function"
        },
        {
            "inputs": [],
            "name": "renounceOwnership",
            "outputs": [],
            "stateMutability": "nonpayable",
            "type": "function"
        },
        {
            "inputs": [
                {
                    "internalType": "address",
                    "name": "from",
                    "type": "address"
                },
                {
                    "internalType": "address",
                    "name": "to",
                    "type": "address"
                },
                {
                    "internalType": "uint256",
                    "name": "tokenId",
                    "type": "uint256"
                }
            ],
            "name": "safeTransferFrom",
            "outputs": [],
            "stateMutability": "nonpayable",
            "type": "function"
        },
        {
            "inputs": [
                {
                    "internalType": "address",
                    "name": "from",
                    "type": "address"
                },
                {
                    "internalType": "address",
                    "name": "to",
                    "type": "address"
                },
                {
                    "internalType": "uint256",
                    "name": "tokenId",
                    "type": "uint256"
                },
                {
                    "internalType": "bytes",
                    "name": "_data",
                    "type": "bytes"
                }
            ],
            "name": "safeTransferFrom",
            "outputs": [],
            "stateMutability": "nonpayable",
            "type": "function"
        },
        {
            "inputs": [
                {
                    "internalType": "address",
                    "name": "operator",
                    "type": "address"
                },
                {
                    "internalType": "bool",
                    "name": "approved",
                    "type": "bool"
                }
            ],
            "name": "setApprovalForAll",
            "outputs": [],
            "stateMutability": "nonpayable",
            "type": "function"
        },
        {
            "inputs": [
                {
                    "internalType": "string",
                    "name": "baseTokenUri_",
                    "type": "string"
                }
            ],
            "name": "setBaseTokenUri",
            "outputs": [],
            "stateMutability": "nonpayable",
            "type": "function"
        },
        {
            "inputs": [
                {
                    "internalType": "bool",
                    "name": "isPublicMintEnabled_",
                    "type": "bool"
                }
            ],
            "name": "setIsPublicMintEnabled",
            "outputs": [],
            "stateMutability": "nonpayable",
            "type": "function"
        },
        {
            "inputs": [
                {
                    "internalType": "bytes4",
                    "name": "interfaceId",
                    "type": "bytes4"
                }
            ],
            "name": "supportsInterface",
            "outputs": [
                {
                    "internalType": "bool",
                    "name": "",
                    "type": "bool"
                }
            ],
            "stateMutability": "view",
            "type": "function"
        },
        {
            "inputs": [],
            "name": "symbol",
            "outputs": [
                {
                    "internalType": "string",
                    "name": "",
                    "type": "string"
                }
            ],
            "stateMutability": "view",
            "type": "function"
        },
        {
            "inputs": [
                {
                    "internalType": "uint256",
                    "name": "tokenId_",
                    "type": "uint256"
                }
            ],
            "name": "tokenURI",
            "outputs": [
                {
                    "internalType": "string",
                    "name": "",
                    "type": "string"
                }
            ],
            "stateMutability": "view",
            "type": "function"
        },
        {
            "inputs": [],
            "name": "totalSupply",
            "outputs": [
                {
                    "internalType": "uint256",
                    "name": "",
                    "type": "uint256"
                }
            ],
            "stateMutability": "view",
            "type": "function"
        },
        {
            "inputs": [
                {
                    "internalType": "address",
                    "name": "from",
                    "type": "address"
                },
                {
                    "internalType": "address",
                    "name": "to",
                    "type": "address"
                },
                {
                    "internalType": "uint256",
                    "name": "tokenId",
                    "type": "uint256"
                }
            ],
            "name": "transferFrom",
            "outputs": [],
            "stateMutability": "nonpayable",
            "type": "function"
        },
        {
            "inputs": [
                {
                    "internalType": "address",
                    "name": "newOwner",
                    "type": "address"
                }
            ],
            "name": "transferOwnership",
            "outputs": [],
            "stateMutability": "nonpayable",
            "type": "function"
        },
        {
            "inputs": [
                {
                    "internalType": "address",
                    "name": "",
                    "type": "address"
                }
            ],
            "name": "walletMints",
            "outputs": [
                {
                    "internalType": "uint256",
                    "name": "",
                    "type": "uint256"
                }
            ],
            "stateMutability": "view",
            "type": "function"
        },
        {
            "inputs": [],
            "name": "withdrawWallet",
            "outputs": [
                {
                    "internalType": "address payable",
                    "name": "",
                    "type": "address"
                }
            ],
            "stateMutability": "view",
            "type": "function"
        },
        {
            "inputs": [],
            "name": "withfraw",
            "outputs": [],
            "stateMutability": "nonpayable",
            "type": "function"
        }
    ],
    "bytecode": "0x600360808181526213919560ea1b60a0908152610100604052600260c090815261052560f41b60e05291926200003891600091620000e1565b5080516200004e906001906020840190620000e1565b5050506200006b620000656200008b60201b60201c565b6200008f565b66470de4df820000600755600060085560646009556001600a55620001c4565b3390565b600680546001600160a01b038381166001600160a01b0319831681179093556040519116919082907f8be0079c531659141344cd1fd0a4f28419497f9722a3daafe3b4186f6b6457e090600090a35050565b828054620000ef9062000187565b90600052602060002090601f0160209004810192826200011357600085556200015e565b82601f106200012e57805160ff19168380011785556200015e565b828001600101855582156200015e579182015b828111156200015e57825182559160200191906001019062000141565b506200016c92915062000170565b5090565b5b808211156200016c576000815560010162000171565b600181811c908216806200019c57607f821691505b60208210811415620001be57634e487b7160e01b600052602260045260246000fd5b50919050565b611c8c80620001d46000396000f3fe60806040526004361061019c5760003560e01c806370a08231116100ec578063a22cb4651161008a578063d5abeb0111610064578063d5abeb011461046c578063e985e9c514610482578063f0293fd3146104cb578063f2fde38b146104f857600080fd5b8063a22cb4651461040c578063b88d4fde1461042c578063c87b56dd1461044c57600080fd5b80638da5cb5b116100c65780638da5cb5b146103a657806395652cfa146103c457806395d89b41146103e4578063a0712d68146103f957600080fd5b806370a0823114610351578063715018a61461037157806385d178f41461038657600080fd5b806318160ddd1161015957806342842e0e1161013357806342842e0e146102e5578063453c2310146103055780636352211e1461031b5780636817c76c1461033b57600080fd5b806318160ddd146102815780632373ac22146102a557806323b872dd146102c557600080fd5b80630116bc2d146101a157806301ffc9a7146101d057806306fdde03146101f0578063081812fc14610212578063095ea7b31461024a57806312f2cd3a1461026c575b600080fd5b3480156101ad57600080fd5b50600b546101bb9060ff1681565b60405190151581526020015b60405180910390f35b3480156101dc57600080fd5b506101bb6101eb366004611800565b610518565b3480156101fc57600080fd5b5061020561056a565b6040516101c79190611a05565b34801561021e57600080fd5b5061023261022d3660046118ac565b6105fc565b6040516001600160a01b0390911681526020016101c7565b34801561025657600080fd5b5061026a6102653660046117bb565b610696565b005b34801561027857600080fd5b5061026a6107ac565b34801561028d57600080fd5b5061029760085481565b6040519081526020016101c7565b3480156102b157600080fd5b5061026a6102c03660046117e5565b61086e565b3480156102d157600080fd5b5061026a6102e0366004611679565b6108ab565b3480156102f157600080fd5b5061026a610300366004611679565b6108dc565b34801561031157600080fd5b50610297600a5481565b34801561032757600080fd5b506102326103363660046118ac565b6108f7565b34801561034757600080fd5b5061029760075481565b34801561035d57600080fd5b5061029761036c366004611624565b61096e565b34801561037d57600080fd5b5061026a6109f5565b34801561039257600080fd5b50600d54610232906001600160a01b031681565b3480156103b257600080fd5b506006546001600160a01b0316610232565b3480156103d057600080fd5b5061026a6103df36600461183a565b610a2b565b3480156103f057600080fd5b50610205610a61565b61026a6104073660046118ac565b610a70565b34801561041857600080fd5b5061026a610427366004611791565b610c04565b34801561043857600080fd5b5061026a6104473660046116b5565b610c0f565b34801561045857600080fd5b506102056104673660046118ac565b610c47565b34801561047857600080fd5b5061029760095481565b34801561048e57600080fd5b506101bb61049d366004611646565b6001600160a01b03918216600090815260056020908152604080832093909416825291909152205460ff1690565b3480156104d757600080fd5b506102976104e6366004611624565b600e6020526000908152604090205481565b34801561050457600080fd5b5061026a610513366004611624565b610cd8565b60006001600160e01b031982166380ac58cd60e01b148061054957506001600160e01b03198216635b5e139f60e01b145b8061056457506301ffc9a760e01b6001600160e01b03198316145b92915050565b60606000805461057990611b7e565b80601f01602080910402602001604051908101604052809291908181526020018280546105a590611b7e565b80156105f25780601f106105c7576101008083540402835291602001916105f2565b820191906000526020600020905b8154815290600101906020018083116105d557829003601f168201915b5050505050905090565b6000818152600260205260408120546001600160a01b031661067a5760405162461bcd60e51b815260206004820152602c60248201527f4552433732313a20617070726f76656420717565727920666f72206e6f6e657860448201526b34b9ba32b73a103a37b5b2b760a11b60648201526084015b60405180910390fd5b506000908152600460205260409020546001600160a01b031690565b60006106a1826108f7565b9050806001600160a01b0316836001600160a01b0316141561070f5760405162461bcd60e51b815260206004820152602160248201527f4552433732313a20617070726f76616c20746f2063757272656e74206f776e656044820152603960f91b6064820152608401610671565b336001600160a01b038216148061072b575061072b813361049d565b61079d5760405162461bcd60e51b815260206004820152603860248201527f4552433732313a20617070726f76652063616c6c6572206973206e6f74206f7760448201527f6e6572206e6f7220617070726f76656420666f7220616c6c00000000000000006064820152608401610671565b6107a78383610d70565b505050565b6006546001600160a01b031633146107d65760405162461bcd60e51b815260040161067190611a6a565b600d546040516000916001600160a01b03169047908381818185875af1925050503d8060008114610823576040519150601f19603f3d011682016040523d82523d6000602084013e610828565b606091505b505090508061086b5760405162461bcd60e51b815260206004820152600f60248201526e1dda5d1a191c985dc819985a5b1959608a1b6044820152606401610671565b50565b6006546001600160a01b031633146108985760405162461bcd60e51b815260040161067190611a6a565b600b805460ff1916911515919091179055565b6108b53382610dde565b6108d15760405162461bcd60e51b815260040161067190611a9f565b6107a7838383610ed5565b6107a783838360405180602001604052806000815250610c0f565b6000818152600260205260408120546001600160a01b0316806105645760405162461bcd60e51b815260206004820152602960248201527f4552433732313a206f776e657220717565727920666f72206e6f6e657869737460448201526832b73a103a37b5b2b760b91b6064820152608401610671565b60006001600160a01b0382166109d95760405162461bcd60e51b815260206004820152602a60248201527f4552433732313a2062616c616e636520717565727920666f7220746865207a65604482015269726f206164647265737360b01b6064820152608401610671565b506001600160a01b031660009081526003602052604090205490565b6006546001600160a01b03163314610a1f5760405162461bcd60e51b815260040161067190611a6a565b610a296000611071565b565b6006546001600160a01b03163314610a555760405162461bcd60e51b815260040161067190611a6a565b6107a7600c838361155f565b60606001805461057990611b7e565b600b5460ff16610ab85760405162461bcd60e51b81526020600482015260136024820152721b5a5b9d1a5b99c81b9bdd08195b98589b1959606a1b6044820152606401610671565b600754610ac59082611b1c565b3414610b065760405162461bcd60e51b815260206004820152601060248201526f77726f6e67206d696e742076616c756560801b6044820152606401610671565b60095481600854610b179190611af0565b1115610b505760405162461bcd60e51b81526020600482015260086024820152671cdbdb19081bdd5d60c21b6044820152606401610671565b600a54336000908152600e6020526040902054610b6e908390611af0565b1115610bb05760405162461bcd60e51b8152602060048201526011602482015270195e18d95959081b585e081dd85b1b195d607a1b6044820152606401610671565b60005b81811015610c005760006008546001610bcc9190611af0565b600880549192506000610bde83611bb9565b9190505550610bed33826110c3565b5080610bf881611bb9565b915050610bb3565b5050565b610c003383836110dd565b610c193383610dde565b610c355760405162461bcd60e51b815260040161067190611a9f565b610c41848484846111ac565b50505050565b6000818152600260205260409020546060906001600160a01b0316610ca65760405162461bcd60e51b8152602060048201526015602482015274546f6b656e20646f6573206e6f742065786973742160581b6044820152606401610671565b600c610cb1836111df565b604051602001610cc292919061190d565b6040516020818303038152906040529050919050565b6006546001600160a01b03163314610d025760405162461bcd60e51b815260040161067190611a6a565b6001600160a01b038116610d675760405162461bcd60e51b815260206004820152602660248201527f4f776e61626c653a206e6577206f776e657220697320746865207a65726f206160448201526564647265737360d01b6064820152608401610671565b61086b81611071565b600081815260046020526040902080546001600160a01b0319166001600160a01b0384169081179091558190610da5826108f7565b6001600160a01b03167f8c5be1e5ebec7d5bd14f71427d1e84f3dd0314c0f7b2291e5b200ac8c7c3b92560405160405180910390a45050565b6000818152600260205260408120546001600160a01b0316610e575760405162461bcd60e51b815260206004820152602c60248201527f4552433732313a206f70657261746f7220717565727920666f72206e6f6e657860448201526b34b9ba32b73a103a37b5b2b760a11b6064820152608401610671565b6000610e62836108f7565b9050806001600160a01b0316846001600160a01b03161480610ea957506001600160a01b0380821660009081526005602090815260408083209388168352929052205460ff165b80610ecd5750836001600160a01b0316610ec2846105fc565b6001600160a01b0316145b949350505050565b826001600160a01b0316610ee8826108f7565b6001600160a01b031614610f4c5760405162461bcd60e51b815260206004820152602560248201527f4552433732313a207472616e736665722066726f6d20696e636f72726563742060448201526437bbb732b960d91b6064820152608401610671565b6001600160a01b038216610fae5760405162461bcd60e51b8152602060048201526024808201527f4552433732313a207472616e7366657220746f20746865207a65726f206164646044820152637265737360e01b6064820152608401610671565b610fb9600082610d70565b6001600160a01b0383166000908152600360205260408120805460019290610fe2908490611b3b565b90915550506001600160a01b0382166000908152600360205260408120805460019290611010908490611af0565b909155505060008181526002602052604080822080546001600160a01b0319166001600160a01b0386811691821790925591518493918716917fddf252ad1be2c89b69c2b068fc378daa952ba7f163c4a11628f55a4df523b3ef91a4505050565b600680546001600160a01b038381166001600160a01b0319831681179093556040519116919082907f8be0079c531659141344cd1fd0a4f28419497f9722a3daafe3b4186f6b6457e090600090a35050565b610c008282604051806020016040528060008152506112dd565b816001600160a01b0316836001600160a01b0316141561113f5760405162461bcd60e51b815260206004820152601960248201527f4552433732313a20617070726f766520746f2063616c6c6572000000000000006044820152606401610671565b6001600160a01b03838116600081815260056020908152604080832094871680845294825291829020805460ff191686151590811790915591519182527f17307eab39ab6107e8899845ad3d59bd9653f200f220920489ca2b5937696c31910160405180910390a3505050565b6111b7848484610ed5565b6111c384848484611310565b610c415760405162461bcd60e51b815260040161067190611a18565b6060816112035750506040805180820190915260018152600360fc1b602082015290565b8160005b811561122d578061121781611bb9565b91506112269050600a83611b08565b9150611207565b60008167ffffffffffffffff81111561124857611248611c2a565b6040519080825280601f01601f191660200182016040528015611272576020820181803683370190505b5090505b8415610ecd57611287600183611b3b565b9150611294600a86611bd4565b61129f906030611af0565b60f81b8183815181106112b4576112b4611c14565b60200101906001600160f81b031916908160001a9053506112d6600a86611b08565b9450611276565b6112e7838361141d565b6112f46000848484611310565b6107a75760405162461bcd60e51b815260040161067190611a18565b60006001600160a01b0384163b1561141257604051630a85bd0160e11b81526001600160a01b0385169063150b7a02906113549033908990889088906004016119c8565b602060405180830381600087803b15801561136e57600080fd5b505af192505050801561139e575060408051601f3d908101601f1916820190925261139b9181019061181d565b60015b6113f8573d8080156113cc576040519150601f19603f3d011682016040523d82523d6000602084013e6113d1565b606091505b5080516113f05760405162461bcd60e51b815260040161067190611a18565b805181602001fd5b6001600160e01b031916630a85bd0160e11b149050610ecd565b506001949350505050565b6001600160a01b0382166114735760405162461bcd60e51b815260206004820181905260248201527f4552433732313a206d696e7420746f20746865207a65726f20616464726573736044820152606401610671565b6000818152600260205260409020546001600160a01b0316156114d85760405162461bcd60e51b815260206004820152601c60248201527f4552433732313a20746f6b656e20616c7265616479206d696e746564000000006044820152606401610671565b6001600160a01b0382166000908152600360205260408120805460019290611501908490611af0565b909155505060008181526002602052604080822080546001600160a01b0319166001600160a01b03861690811790915590518392907fddf252ad1be2c89b69c2b068fc378daa952ba7f163c4a11628f55a4df523b3ef908290a45050565b82805461156b90611b7e565b90600052602060002090601f01602090048101928261158d57600085556115d3565b82601f106115a65782800160ff198235161785556115d3565b828001600101855582156115d3579182015b828111156115d35782358255916020019190600101906115b8565b506115df9291506115e3565b5090565b5b808211156115df57600081556001016115e4565b80356001600160a01b038116811461160f57600080fd5b919050565b8035801515811461160f57600080fd5b60006020828403121561163657600080fd5b61163f826115f8565b9392505050565b6000806040838503121561165957600080fd5b611662836115f8565b9150611670602084016115f8565b90509250929050565b60008060006060848603121561168e57600080fd5b611697846115f8565b92506116a5602085016115f8565b9150604084013590509250925092565b600080600080608085870312156116cb57600080fd5b6116d4856115f8565b93506116e2602086016115f8565b925060408501359150606085013567ffffffffffffffff8082111561170657600080fd5b818701915087601f83011261171a57600080fd5b81358181111561172c5761172c611c2a565b604051601f8201601f19908116603f0116810190838211818310171561175457611754611c2a565b816040528281528a602084870101111561176d57600080fd5b82602086016020830137600060208483010152809550505050505092959194509250565b600080604083850312156117a457600080fd5b6117ad836115f8565b915061167060208401611614565b600080604083850312156117ce57600080fd5b6117d7836115f8565b946020939093013593505050565b6000602082840312156117f757600080fd5b61163f82611614565b60006020828403121561181257600080fd5b813561163f81611c40565b60006020828403121561182f57600080fd5b815161163f81611c40565b6000806020838503121561184d57600080fd5b823567ffffffffffffffff8082111561186557600080fd5b818501915085601f83011261187957600080fd5b81358181111561188857600080fd5b86602082850101111561189a57600080fd5b60209290920196919550909350505050565b6000602082840312156118be57600080fd5b5035919050565b600081518084526118dd816020860160208601611b52565b601f01601f19169290920160200192915050565b60008151611903818560208601611b52565b9290920192915050565b600080845481600182811c91508083168061192957607f831692505b602080841082141561194957634e487b7160e01b86526022600452602486fd5b81801561195d576001811461196e5761199b565b60ff1986168952848901965061199b565b60008b81526020902060005b868110156119935781548b82015290850190830161197a565b505084890196505b5050505050506119bf6119ae82866118f1565b64173539b7b760d91b815260050190565b95945050505050565b6001600160a01b03858116825284166020820152604081018390526080606082018190526000906119fb908301846118c5565b9695505050505050565b60208152600061163f60208301846118c5565b60208082526032908201527f4552433732313a207472616e7366657220746f206e6f6e20455243373231526560408201527131b2b4bb32b91034b6b83632b6b2b73a32b960711b606082015260800190565b6020808252818101527f4f776e61626c653a2063616c6c6572206973206e6f7420746865206f776e6572604082015260600190565b60208082526031908201527f4552433732313a207472616e736665722063616c6c6572206973206e6f74206f6040820152701ddb995c881b9bdc88185c1c1c9bdd9959607a1b606082015260800190565b60008219821115611b0357611b03611be8565b500190565b600082611b1757611b17611bfe565b500490565b6000816000190483118215151615611b3657611b36611be8565b500290565b600082821015611b4d57611b4d611be8565b500390565b60005b83811015611b6d578181015183820152602001611b55565b83811115610c415750506000910152565b600181811c90821680611b9257607f821691505b60208210811415611bb357634e487b7160e01b600052602260045260246000fd5b50919050565b6000600019821415611bcd57611bcd611be8565b5060010190565b600082611be357611be3611bfe565b500690565b634e487b7160e01b600052601160045260246000fd5b634e487b7160e01b600052601260045260246000fd5b634e487b7160e01b600052603260045260246000fd5b634e487b7160e01b600052604160045260246000fd5b6001600160e01b03198116811461086b57600080fdfea264697066735822122013dbc1aa0191f2e6a5ba91f1844fc0057a620d824e3c956de9cfd61f036ccdab64736f6c63430008060033",
    "linkReferences": {},
    "deployedLinkReferences": {}
}